:040000000C94580004
:100004000C9400000C9400000C9400000C9400006C
:100014000C9400000C9400000C9400000C9400005C
:100024000C9400000C9400000C9484000C940000C8
:100034000C9400000C9400000C9400000C9400003C
:100044000C9400000C9400000C9400000C9400002C
:100054001027E80364000A000100001000011000EA
:1000640001000000000048426368697A69206E69F3
:100074007374002020643D256420636D000080C0FB
:1000840001002D4E414E00494E460000020006007C
:10009400660004006B0268000B0060026C00020042
:1000A400830282000100870284000000F894EE2796
:1000B400ECBBF1E0F5BFE5BF8DE0A2E0BB27ED931B
:1000C4008A95E9F780E098E0A0E6ED930197E9F7D7
:1000D400E0E9F0E085919591009761F0A591B591E3
:1000E40005901590BF01F00105900D920197E1F77D
:1000F400FB01F0CFEFE5EDBFE8E0EEBFC0E6D2E0F4
:100104000C940801EA93FA93EFB7EA93E0E0E2BFB4
:10011400F20131962F01E991EFBFF991E991189518
:10012400C09A87E08A95F1F7C098B19BFECF44242A
:100134005524E0E0E2BFE2E0E3BFB199FECFE0E0A6
:10014400E3BF0E94FC03DF01CB01E0E0F0E66AEECE
:1001540076E40E94CB0509F008F409C02BD1E0E055
:10016400EA93A0E01AD1A0E6B2E045D127C0662404
:1001740077240E94FC03ABE7B4E18EE29EE30E9485
:100184007D050E94C3043F01430114D1EFE6F2E070
:10019400FA93EA93E7E7F0E0FA93EA93F3010E9413
:1001A400FB050E94120684E00E94AF032896AFE686
:1001B400B2E021D1A6E9B0E00E948A04F4010895D6
:1001C4000E941706AC81E6E60E9400060E2EE6E4C5
:1001D4000E940006E02911F0909A9198AC81E2E621
:1001E4000E9400060E2EE2E40E940006E02911F0AF
:1001F4009098919AE0E0E9BDE8BDEBBDEABD0E94AC
:100204000D060E94C104EABD0C94790203E210E0D9
:10021400EFEFEABBE0E0EBBBE1E0E7BBE0E0E8BB2B
:10022400E4BBE5BBEFEFE1BBE0E0E2BBE2E0E3BF50
:10023400E0E0E2BFECBFE1E8EFBDE1E0EEBDE0E00D
:10024400EDBDECBDE7BDE6BDEBBDEABDE9BDE8BD76
:10025400E2BDE5BDE4BDE3BDE1E0E9BFE0E0E5BF4B
:10026400E4BFEAB9E0E8E8B9E0E0E0BFE6B9EDB937
:10027400E6BFA0E2D1D0789453DF3F01E3E2F0E09F
:100284006E167F062CF4E9E1F0E0E615F7050CF0B4
:1002940004C00E9412040E941F04E9E1F0E06E16FB
:1002A4007F062CF4EFE0F0E0E615F7050CF004C04F
:1002B4000E942B040E941F04EFE0F0E06E167F06FC
:1002C4002CF4E5E0F0E0E615F7050CF004C00E941C
:1002D40038040E941F04E3E2F0E0E615F7052CF46D
:1002E400EDE2F0E06E167F060CF004C00E941204EA
:1002F4000E944504EDE2F0E0E615F7052CF4E7E38F
:10030400F0E06E167F060CF004C00E942B040E94DD
:100314004504E7E3F0E0E615F7052CF4E1E4F0E04A
:100324006E167F060CF004C00E9438040E94450437
:10033400E1E4F0E0E615F70574F4E0E0F0E068E4E9
:1003440073E4E0936B02F0936C0260936D0270931C
:100354006E020E94450490CFFFCFAA93EBB3EF70D7
:10036400AE2FE881E07FEA2BEBBB82E08A95F1F7C0
:10037400DA9A82E08A95F1F7DA9882E08A95F1F7C1
:1003840076C0AA93A881E9DFE881E295E883A88191
:10039400E4DF81E18A95F1F76AC0AA93E881F0E08D
:1003A400ED57FD4FE081A981AE0FEBDFB980A88046
:1003B40022960895A2E00E945104ACE0E2DFA1E09D
:1003C4000E945104E0E0AE2EBE2E0895AA93A881A7
:1003D400AA3011F0BD1448F0E0E0EA93A394AA2DEA
:1003E400DCDFA881AA3009F442C0B394D89AA8816A
:1003F400C8DFD8983CC0BA93AA931A93A981BA814A
:10040400ED91A983BA831E2FE03019F0A12FDEDF0E
:10041400F5CF188123960895AA93EAB3E06FEABB57
:10042400D29AD09AD19ADA98D898D998D880E88173
:10043400E058E0938502E881E054E0938602A4E169
:10044400B0E00E948A040E9457040E9457040E944C
:100454005704A0E282DF81E28A95F1F7A8E291DFF6
:10046400A4E08FDFA5E88DDFA6E08BDFA3DF219674
:100474000895BA93AA931A930A93AA81BB811296F8
:100484000E940506309759F1AA81BB8114960E94F7
:1004940005068F01309761F00230E0E01E0798F006
:1004A400F80131978F01AA81BB811496ED93FC93D7
:1004B400AA81BB811296ED91FD913196FE93EE9344
:1004C4003197AC81A083AA81BB810E940506FF23DA
:1004D4002AF0ED91FD913196FE93EE9306C0AA8128
:1004E400BB81EFEFFFEFED93FC9319810881259613
:1004F4000895BA93AA9326970E941C0610E0AC852F
:10050400BD85E0E0F0E0ED93FC93EA89FB89319648
:10051400EA8BFB8B3197E4912E2FE03009F415C15F
:10052400E12FE03039F4253211F411E002C00E94C9
:100534005E040AC1E130A9F4253219F40E945E0474
:1005440002C112E040E000E02D3211F401E0FCC0F1
:100554002B3211F44BE2F8C0203211F440E2F4C023
:1005640002C0E23039F450E013E0203311F40068A3
:10057400EBC003C0E33009F0E7C0203310F02A33A6
:1005840008F007C0AAE05A9F502DE22FE0535E0FF7
:10059400DBC0E22FE33649F40E946504E889F98957
:1005A400A481AA930E946B04CEC0E33741F40E9455
:1005B40065040E9471040E94E3031E2F0AC0E03701
:1005C40061F40E9465040E9471040E94EF031E2FCF
:1005D400086002600F7730E034C0E43611F0E93689
:1005E40011F4046002C0E53731F4E4E5F0E0EE8391
:1005F400FF8315E00CC0E83511F4086003C0E83748
:1006040009F0A1C0EEE5F0E0EE83FF8314E002FF01
:1006140014C00E9465040E947B04AB85AA233AF4AB
:10062400EA85FB850E94EF05EA87FB874DE24030AF
:1006340011F01F5F01C00B7F04C00E9465040E947B
:100644007B0400FD11C0151778F407FF08C002FFF2
:1006540004C00B7F242F115001C020E301C020E20D
:100664000E945E045150EFCF312F01FF17C030308C
:10067400A1F003FF06C0EE81FF812591EE83FF8385
:1006840005C0AE81BF812D91AE83BF830E945E04FD
:10069400503009F051503150EACF4BC020E3EE8185
:1006A400FF810E940906E887F987EE81FF8132966F
:1006B400EE83FF83E885F985AA85BB85AE17BF075E
:1006C40050F02F5FA885B985EA85FB85EA1BFB0BF3
:1006D400EA87FB87EFCF2A3328F003FF02C0295FA4
:1006E40001C0295D04FD1AC0213320F4A885B98511
:1006F400119709F409C0531710F000FF01C013C08B
:1007040020E207FF0BC020E3006102FF07C00B7F5C
:100714004A930E946B04503009F051500E945E04C9
:10072400503009F051503150A885B985129708F01E
:10073400B5CF00FF08C0503031F05150E0E2EA93E9
:100744000E946B04F8CF10E0E0CEAC85BD850E941A
:1007540005060E94230664960895FF92F82E2697B4
:100764000E941E060E948304309719F4EFEFFFEFF6
:1007740023C0DE0116960E94EB058D010E948304BE
:10078400EE83FF83E0E0E887E987DE011A960E94A2
:10079400EB050E940506FA93EA931A930A93EBE396
:1007A400F2E0FA93EA93DE011A96A3DE9F01AE818A
:1007B400BF81E0E0EC93F9010E9425062A96FF90A0
:1007C4000895BA93AA93A991B991EE27FF276D9141
:1007D400662311F03196FBCF0895BA93AA93AA2702
:1007E400BB27E991F9910590002011F01196FBCFF8
:1007F400FD010895F2010E94FB050E94FA04A0E0A5
:10080400B0E080E893E40E947D05DF01CB01E2B70C
:10081400F0E00E94FB050E94FA040E942D05089551
:10082400E0E0F0E068E472E4E0936B02F0936C02C1
:1008340060936D0270936E020895E6E6EA93A091C8
:100844006B02B0916C0280916D0290916E020C94D7
:10085400E200E0E0F0E068EC72E4E0936B02F09315
:100864006C0260936D0270936E020895E0E0F0E014
:1008740066E173E4E0936B02F0936C0260936D02A3
:1008840070936E020895E2E6EA93A0916B02B09130
:100894006C0280916D0290916E020C94E2000E94B1
:1008A400C301A3E0B0E00C948A04A0E30E94AF016A
:1008B40081E28A95F1F708952A93AD85BE85EF8587
:1008C400F88909950895E889F9893497E88BF98BB3
:1008D4000895AD85BE85EF85F88909950895A889A1
:1008E400B98914960E940506EE83FF83AE81BF8109
:1008F4000895A889B98914960E940506EA87FB879A
:100904000895DE011C960E94EB050E9405060895D9
:10091400109639F08AEF90E00197F1F7A8951197B6
:10092400C9F70895552342F4503811F4E0FF04C088
:100934003196691F791F6BF050E8572711F45F93C4
:10094400C8C05F3F31F0660F000C57956795752F4F
:1009540008955F9300200AF0C8C0C1C050E8192E62
:100964001522880F991F9527550F879550E8072E54
:100974000522660F771F7527550F679508956894AC
:1009840001C0E8945F93F2DF703818F07F3F08F4F9
:10099400A0C056E1571BAAF4519558300EF45930B3
:1009A40030F0EFEFFFEF6FEF7FE777F91AC07727AB
:1009B4005523B9F0EE0FFF1F661F771F5A95D1F725
:1009C40010C07727583028F0EF2FF62F672F585094
:1009D400F9CF552331F076956795F795E7955A95B4
:1009E400D1F700200AF4FDD05F910895689401C006
:1009F400E894309760407040B1F0002426F07723EB
:100A040012F40094EED0172E7EE1112032F07A9584
:100A1400EE0FFF1F661F111CF9CFEF2FF62F612D6C
:100A24005F938ADF5F9108954F93AF01FD01DA016F
:100A3400AB01BC01CA01402D012C142E4F91089525
:100A4400EA0FFB1F681F0895E095F0956095EF5F2E
:100A5400FF4F6F4F08955F9381DF903839F17038FD
:100A640021F1572F591B2BF112F4DEDFFACF583145
:100A740018F0AA27BB278827583028F0AB2FB82FA7
:100A840088275850F9CF552329F08695B795A7950F
:100A94005A95D9F7502D512572F0D2DF38F4679565
:100AA400F795E795739513F420C0BEDF45DF5F919A
:100AB4000895D8F7FBCFEA1BFB0B680B51F010F439
:100AC4000094C2DF662392F3EE0FFF1F661F7A9530
:100AD400CBF7EE27FF27662777275F910895EFEF7F
:100AE400FFEF6FE77FEF5F910895EFEFFFEF6FE7A1
:100AF4007FE75F9108955F9331DF703851F3903849
:100B040041F301240894791F23F41CF300203AF3E1
:100B1400ECCF0F921F932F933F934F9311272227CC
:100B24009927689FA0018F9F302D410D591F6B9FFE
:100B3400300D411D591F8E9F27D0BF9F25D06A9F1E
:100B440023D0BE9F1DD0AF9F1BD0AE9F110D291F78
:100B5400391F491F591FE32FF42F652F522F4F912F
:100B64003F912F911F910F9066232AF0550FEE1F8E
:100B7400FF1F661F02C073954BF2D4DE5F91089588
:100B8400100D211D391F02C0200D311D491F591F91
:100B9400089599239AF0772342F0971748F029F49F
:100BA400AE17BF07860720F031F098948894089513
:100BB4009894089408951894889408957723C2F714
:100BC400971798F3A9F7EA17FB07680788F399F3CF
:100BD400ECCF0024AF0DB01D0895F195E195F040E0
:100BE4000895F09560957095E195FF4F6F4F7F4F95
:100BF40008956F2F660F660B762F0895EA17E1E0CC
:100C040009F0EE270895ED91FC9111970895059050
:100C1400F491E02D0895E881F9816A817B8108953A
:100C24007A936A93FA93EA9308959A938A93BA9378
:100C3400AA9308955A934A933A932A931A930A9338
:100C440008955D814C813B812A8119810881089531
:00000001FF
