:080000000C9458000C94000060
:100008000C9400000C9400000C9400000C94000068
:100018000C9400000C9400000C9400000C94000058
:100028000C9400000C9484000C9400000C940000C4
:100038000C9400000C9400000C9400000C94000038
:100048000C9400000C9400000C9400001027E803A6
:1000580064000A0001000010000110000100000007
:10006800000048426368697A69206E6973740020E9
:1000780020643D256420636D000080C001002D4E82
:10008800414E00494E46000002000600660004008A
:100098006B0268000B0060026C00020083028200A1
:1000A8000100870284000000F894EE27ECBBF1E021
:1000B800F5BFE5BF8DE0A2E0BB27ED938A95E9F790
:1000C80080E098E0A0E6ED930197E9F7E0E9F0E039
:1000D80085919591009761F0A591B591059015903E
:1000E800BF01F00105900D920197E1F7FB01F0CFF8
:1000F800EFE5EDBFE8E0EEBFC0E6D2E00C940A0100
:10010800EA93FA93EFB7EA93E0E0E2BFF20131969F
:100118002F01E991EFBFF991E9911895C09A87E00D
:100128008A95F1F7C098B19BFECF44245524E0E0AE
:10013800E2BFE2E0E3BFB199FECFE0E0E3BF0E9497
:100148001D04DF01CB01E0E0F0E66AEE76E40E94F0
:10015800F50509F008F40BC00E94FD01E0E0EA9300
:10016800A0E03AD1A0E6B2E00E941E0227C06624B1
:1001780077240E941D04ABE7B4E18EE29EE30E945F
:10018800A7050E94ED043F01430133D1EFE6F2E0F9
:10019800FA93EA93E7E7F0E0FA93EA93F3010E940F
:1001A80025060E943C0684E00E94D0032896AFE60C
:1001B800B2E040D1A6E9B0E00E94B404F401089589
:1001C8000E944106AC81E6E60E942A060E2EE6E46D
:1001D8000E942A06E02911F0909A9198AC81E2E6F3
:1001E8000E942A060E2EE2E40E942A06E02911F057
:1001F8009098919AE0E0E9BDE8BDEBBDEABD0E94A8
:1002080037060E94EB04EABD0C949A0203E210E060
:10021800EFEFEABBE0E0EBBBE1E0E7BBE0E0E8BB27
:10022800E4BBE5BBEFEFE1BBE0E0E2BBE2E0E3BF4C
:10023800E0E0E2BFECBFE1E8EFBDE1E0EEBDE0E009
:10024800EDBDECBDE7BDE6BDEBBDEABDE9BDE8BD72
:10025800E2BDE5BDE4BDE3BDE1E0E9BFE0E0E5BF47
:10026800E4BFEAB9E0E8E8B9E0E0E0BFE6B9EDB933
:10027800E6BFA0E2F0D0789451DF3F01E5E0F0E07E
:10028800E615F7052CF4EFE0F0E06E167F060CF0AB
:1002980004C00E9433040E944004EFE0F0E0E61539
:1002A800F7052CF4E9E1F0E06E167F060CF004C0C7
:1002B8000E944C040E944004E9E1F0E0E615F705CD
:1002C8002CF4E3E2F0E06E167F060CF004C00E9406
:1002D80059040E944004E3E2F0E0E615F7052CF427
:1002E800EDE2F0E06E167F060CF00BC0E0E0E09364
:1002F8006B02E0936C02E0936D02E0936E020E9441
:100308006604EDE2F0E0E615F7052CF4E7E3F0E02B
:100318006E167F060CF004C00E9459040E94660401
:10032800E7E3F0E0E615F7052CF4E1E4F0E06E16FB
:100338007F060CF004C00E944C040E946604E1E4AD
:10034800F0E0E615F7052CF4EBE4F0E06E167F0616
:100358000CF004C00E9433040E946604EBE4F0E051
:10036800E615F7052CF4EAE5F0E06E167F060CF0CA
:1003780006C0E0E0F0E068E473E40E947204EAE595
:10038800F0E0E615F70534F4E0E0F0E06AE773E43E
:100398000E94720471CFFFCFAA93EBB3EF70AE2F18
:1003A800E881E07FEA2BEBBB82E08A95F1F7DA9AE5
:1003B80082E08A95F1F7DA9882E08A95F1F776C0BB
:1003C800AA93A881E9DFE881E295E883A881E4DFC0
:1003D80081E18A95F1F76AC0AA93E881F0E0ED57C8
:1003E800FD4FE081A981AE0FEBDFB980A88022968E
:1003F8000895A2E00E947B04ACE0E2DFA1E00E9445
:100408007B04E0E0AE2EBE2E0895AA93A881AA3000
:1004180011F0BD1448F0E0E0EA93A394AA2DDCDFC4
:10042800A881AA3009F442C0B394D89AA881C8DF39
:10043800D8983CC0BA93AA931A93A981BA81ED912E
:10044800A983BA831E2FE03019F0A12FDEDFF5CF84
:10045800188123960895AA93EAB3E06FEABBD29A6B
:10046800D09AD19ADA98D898D998D880E881E05863
:10047800E0938502E881E054E0938602A4E1B0E0CD
:100488000E94B4040E9481040E9481040E94810495
:10049800A0E282DF81E28A95F1F7A8E291DFA4E089
:1004A8008FDFA5E88DDFA6E08BDFA3DF2196089517
:1004B800BA93AA931A930A93AA81BB8112960E94AF
:1004C8002F06309759F1AA81BB8114960E942F06F6
:1004D8008F01309761F00230E0E01E0798F0F801D4
:1004E80031978F01AA81BB811496ED93FC93AA8161
:1004F800BB811296ED91FD913196FE93EE93319763
:10050800AC81A083AA81BB810E942F06FF232AF019
:10051800ED91FD913196FE93EE9306C0AA81BB81C1
:10052800EFEFFFEFED93FC9319810881259608956D
:10053800BA93AA9326970E94460610E0AC85BD851B
:10054800E0E0F0E0ED93FC93EA89FB893196EA8BD1
:10055800FB8B3197E4912E2FE03009F415C1E12F80
:10056800E03039F4253211F411E002C00E94880409
:100578000AC1E130A9F4253219F40E94880402C1A5
:1005880012E040E000E02D3211F401E0FCC02B3213
:1005980011F44BE2F8C0203211F440E2F4C002C07A
:1005A800E23039F450E013E0203311F40068EBC076
:1005B80003C0E33009F0E7C0203310F02A3308F015
:1005C80007C0AAE05A9F502DE22FE0535E0FDBC010
:1005D800E22FE33649F40E948F04E889F989A4815F
:1005E800AA930E949504CEC0E33741F40E948F0479
:1005F8000E949B040E9404041E2F0AC0E03761F485
:100608000E948F040E949B040E9410041E2F086001
:1006180002600F7730E034C0E43611F0E93611F4A7
:10062800046002C0E53731F4E4E5F0E0EE83FF83CF
:1006380015E00CC0E83511F4086003C0E83709F08C
:10064800A1C0EEE5F0E0EE83FF8314E002FF14C0E2
:100658000E948F040E94A504AB85AA233AF4EA8578
:10066800FB850E941906EA87FB874DE2403011F0AE
:100678001F5F01C00B7F04C00E948F040E94A50465
:1006880000FD11C0151778F407FF08C002FF04C069
:100698000B7F242F115001C020E301C020E20E94EB
:1006A80088045150EFCF312F01FF17C03030A1F02F
:1006B80003FF06C0EE81FF812591EE83FF8305C00D
:1006C800AE81BF812D91AE83BF830E9488045030D4
:1006D80009F051503150EACF4BC020E3EE81FF8141
:1006E8000E943306E887F987EE81FF813296EE8310
:1006F800FF83E885F985AA85BB85AE17BF0750F04B
:100708002F5FA885B985EA85FB85EA1BFB0BEA877D
:10071800FB87EFCF2A3328F003FF02C0295F01C00F
:10072800295D04FD1AC0213320F4A885B9851197E5
:1007380009F409C0531710F000FF01C013C020E2EC
:1007480007FF0BC020E3006102FF07C00B7F4A933D
:100758000E949504503009F051500E94880450308E
:1007680009F051503150A885B985129708F0B5CFD6
:1007780000FF08C0503031F05150E0E2EA930E9487
:100788009504F8CF10E0E0CEAC85BD850E942F0619
:100798000E944D0664960895FF92F82E26970E94AF
:1007A80048060E94AD04309719F4EFEFFFEF23C01D
:1007B800DE0116960E9415068D010E94AD04EE8397
:1007C800FF83E0E0E887E987DE011A960E941506B4
:1007D8000E942F06FA93EA931A930A93ECE5F2E043
:1007E800FA93EA93DE011A96A3DE9F01AE81BF81D8
:1007F800E0E0EC93F9010E944F062A96FF900895D5
:10080800BA93AA93A991B991EE27FF276D91662310
:1008180011F03196FBCF0895BA93AA93AA27BB2764
:10082800E991F9910590002011F01196FBCFFD0197
:100838000895F2010E9425060E942405A0E0B0E078
:1008480080E893E40E94A705DF01CB01E2B7F0E05E
:100858000E9425060E9424050E9457050895E0E09D
:10086800F0E066E173E4E0936B02F0936C0260934E
:100878006D0270936E020895E6E6EA93A0916B020A
:10088800B0916C0280916D0290916E020C94E4001C
:10089800E0E0F0E068EC72E4E0936B02F0936C0245
:1008A80060936D0270936E020895E0E0F0E068E4F2
:1008B80072E4E0936B02F0936C0260936D027093A4
:1008C8006E020895E2E6EA93A0916B02B0916C0281
:1008D80080916D0290916E020C94E400E0936B029B
:1008E800F0936C0260936D0270936E02EBCF0E94DE
:1008F800E401A3E0B0E00C94B404A0E30E94D001AA
:1009080081E28A95F1F708952A93AD85BE85EF8532
:10091800F88909950895E889F9893497E88BF98B5E
:100928000895AD85BE85EF85F88909950895A8894C
:10093800B98914960E942F06EE83FF83AE81BF818A
:100948000895A889B98914960E942F06EA87FB871B
:100958000895DE011C960E9415060E942F06089530
:10096800109639F08AEF90E00197F1F7A895119762
:10097800C9F70895552342F4503811F4E0FF04C034
:100988003196691F791F6BF050E8572711F45F9370
:10099800C8C05F3F31F0660F000C57956795752FFB
:1009A80008955F9300200AF0C8C0C1C050E8192E0E
:1009B8001522880F991F9527550F879550E8072E00
:1009C8000522660F771F7527550F67950895689458
:1009D80001C0E8945F93F2DF703818F07F3F08F4A5
:1009E800A0C056E1571BAAF4519558300EF459305F
:1009F80030F0EFEFFFEF6FEF7FE777F91AC0772757
:100A08005523B9F0EE0FFF1F661F771F5A95D1F7D0
:100A180010C07727583028F0EF2FF62F672F58503F
:100A2800F9CF552331F076956795F795E7955A955F
:100A3800D1F700200AF4FDD05F910895689401C0B1
:100A4800E894309760407040B1F0002426F0772396
:100A580012F40094EED0172E7EE1112032F07A9530
:100A6800EE0FFF1F661F111CF9CFEF2FF62F612D18
:100A78005F938ADF5F9108954F93AF01FD01DA011B
:100A8800AB01BC01CA01402D012C142E4F910895D1
:100A9800EA0FFB1F681F0895E095F0956095EF5FDA
:100AA800FF4F6F4F08955F9381DF903839F17038A9
:100AB80021F1572F591B2BF112F4DEDFFACF5831F1
:100AC80018F0AA27BB278827583028F0AB2FB82F53
:100AD80088275850F9CF552329F08695B795A795BB
:100AE8005A95D9F7502D512572F0D2DF38F4679511
:100AF800F795E795739513F420C0BEDF45DF5F9146
:100B08000895D8F7FBCFEA1BFB0B680B51F010F4E4
:100B18000094C2DF662392F3EE0FFF1F661F7A95DB
:100B2800CBF7EE27FF27662777275F910895EFEF2A
:100B3800FFEF6FE77FEF5F910895EFEFFFEF6FE74C
:100B48007FE75F9108955F9331DF703851F39038F4
:100B580041F301240894791F23F41CF300203AF38D
:100B6800ECCF0F921F932F933F934F931127222778
:100B78009927689FA0018F9F302D410D591F6B9FAA
:100B8800300D411D591F8E9F27D0BF9F25D06A9FCA
:100B980023D0BE9F1DD0AF9F1BD0AE9F110D291F24
:100BA800391F491F591FE32FF42F652F522F4F91DB
:100BB8003F912F911F910F9066232AF0550FEE1F3A
:100BC800FF1F661F02C073954BF2D4DE5F91089534
:100BD800100D211D391F02C0200D311D491F591F3D
:100BE800089599239AF0772342F0971748F029F44B
:100BF800AE17BF07860720F031F0989488940895BF
:100C08009894089408951894889408957723C2F7BF
:100C1800971798F3A9F7EA17FB07680788F399F37A
:100C2800ECCF0024AF0DB01D0895F195E195F0408B
:100C38000895F09560957095E195FF4F6F4F7F4F40
:100C480008956F2F660F660B762F0895EA17E1E077
:100C580009F0EE270895ED91FC91119708950590FC
:100C6800F491E02D0895E881F9816A817B810895E6
:100C78007A936A93FA93EA9308959A938A93BA9324
:100C8800AA9308955A934A933A932A931A930A93E4
:100C980008955D814C813B812A81198108810895DD
:00000001FF
